{
  "contractName": "Ticket",
  "abi": [
    {
      "inputs": [
        {
          "internalType": "uint256",
          "name": "_ticketPrice",
          "type": "uint256"
        },
        {
          "internalType": "uint256",
          "name": "_totalTickets",
          "type": "uint256"
        }
      ],
      "stateMutability": "nonpayable",
      "type": "constructor"
    },
    {
      "inputs": [],
      "name": "owner",
      "outputs": [
        {
          "internalType": "address",
          "name": "",
          "type": "address"
        }
      ],
      "stateMutability": "view",
      "type": "function"
    },
    {
      "inputs": [],
      "name": "ticketPrice",
      "outputs": [
        {
          "internalType": "uint256",
          "name": "",
          "type": "uint256"
        }
      ],
      "stateMutability": "view",
      "type": "function"
    },
    {
      "inputs": [
        {
          "internalType": "address",
          "name": "",
          "type": "address"
        }
      ],
      "name": "ticketsOwned",
      "outputs": [
        {
          "internalType": "uint256",
          "name": "",
          "type": "uint256"
        }
      ],
      "stateMutability": "view",
      "type": "function"
    },
    {
      "inputs": [],
      "name": "totalTickets",
      "outputs": [
        {
          "internalType": "uint256",
          "name": "",
          "type": "uint256"
        }
      ],
      "stateMutability": "view",
      "type": "function"
    },
    {
      "inputs": [
        {
          "internalType": "uint256",
          "name": "amount",
          "type": "uint256"
        }
      ],
      "name": "buyTicket",
      "outputs": [],
      "stateMutability": "payable",
      "type": "function"
    },
    {
      "inputs": [],
      "name": "getTicketsOwned",
      "outputs": [
        {
          "internalType": "uint256",
          "name": "",
          "type": "uint256"
        }
      ],
      "stateMutability": "view",
      "type": "function"
    }
  ],
  "bytecode": "0x608060405234801561000f575f80fd5b5060405161070a38038061070a833981810160405281019061003191906100bc565b335f806101000a81548173ffffffffffffffffffffffffffffffffffffffff021916908373ffffffffffffffffffffffffffffffffffffffff160217905550816001819055508060028190555050506100fa565b5f80fd5b5f819050919050565b61009b81610089565b81146100a5575f80fd5b50565b5f815190506100b681610092565b92915050565b5f80604083850312156100d2576100d1610085565b5b5f6100df858286016100a8565b92505060206100f0858286016100a8565b9150509250929050565b610603806101075f395ff3fe608060405260043610610054575f3560e01c80630c77e30f146100585780631209b1f61461008257806367dd74ca146100ac5780638da5cb5b146100c8578063951e2021146100f2578063dd11247e1461012e575b5f80fd5b348015610063575f80fd5b5061006c610158565b60405161007991906102fa565b60405180910390f35b34801561008d575f80fd5b5061009661019c565b6040516100a391906102fa565b60405180910390f35b6100c660048036038101906100c19190610341565b6101a2565b005b3480156100d3575f80fd5b506100dc6102a4565b6040516100e991906103ab565b60405180910390f35b3480156100fd575f80fd5b50610118600480360381019061011391906103ee565b6102c7565b60405161012591906102fa565b60405180910390f35b348015610139575f80fd5b506101426102dc565b60405161014f91906102fa565b60405180910390f35b5f60035f3373ffffffffffffffffffffffffffffffffffffffff1673ffffffffffffffffffffffffffffffffffffffff1681526020019081526020015f2054905090565b60015481565b600154816101b09190610446565b34146101f1576040517f08c379a00000000000000000000000000000000000000000000000000000000081526004016101e8906104e1565b60405180910390fd5b806002541015610236576040517f08c379a000000000000000000000000000000000000000000000000000000000815260040161022d90610549565b60405180910390fd5b8060035f3373ffffffffffffffffffffffffffffffffffffffff1673ffffffffffffffffffffffffffffffffffffffff1681526020019081526020015f205f8282546102829190610567565b925050819055508060025f82825461029a919061059a565b9250508190555050565b5f8054906101000a900473ffffffffffffffffffffffffffffffffffffffff1681565b6003602052805f5260405f205f915090505481565b60025481565b5f819050919050565b6102f4816102e2565b82525050565b5f60208201905061030d5f8301846102eb565b92915050565b5f80fd5b610320816102e2565b811461032a575f80fd5b50565b5f8135905061033b81610317565b92915050565b5f6020828403121561035657610355610313565b5b5f6103638482850161032d565b91505092915050565b5f73ffffffffffffffffffffffffffffffffffffffff82169050919050565b5f6103958261036c565b9050919050565b6103a58161038b565b82525050565b5f6020820190506103be5f83018461039c565b92915050565b6103cd8161038b565b81146103d7575f80fd5b50565b5f813590506103e8816103c4565b92915050565b5f6020828403121561040357610402610313565b5b5f610410848285016103da565b91505092915050565b7f4e487b71000000000000000000000000000000000000000000000000000000005f52601160045260245ffd5b5f610450826102e2565b915061045b836102e2565b9250828202610469816102e2565b915082820484148315176104805761047f610419565b5b5092915050565b5f82825260208201905092915050565b7f496e636f7272656374207061796d656e740000000000000000000000000000005f82015250565b5f6104cb601183610487565b91506104d682610497565b602082019050919050565b5f6020820190508181035f8301526104f8816104bf565b9050919050565b7f4e6f7420656e6f756768207469636b65747320617661696c61626c65000000005f82015250565b5f610533601c83610487565b915061053e826104ff565b602082019050919050565b5f6020820190508181035f83015261056081610527565b9050919050565b5f610571826102e2565b915061057c836102e2565b925082820190508082111561059457610593610419565b5b92915050565b5f6105a4826102e2565b91506105af836102e2565b92508282039050818111156105c7576105c6610419565b5b9291505056fea2646970667358221220ad0656c559eab7e9cf8a769ee4fca055ef24c2e515911b50c09549fd5095ab1564736f6c63430008150033",
  "immutableReferences": {},
  "source": "// SPDX-License-Identifier: MIT\npragma solidity >=0.4.22 <0.9.0;\n\ncontract Ticket {\n    address public owner;\n    uint public ticketPrice;\n    uint public totalTickets;\n    mapping(address => uint) public ticketsOwned;\n\n    constructor(uint _ticketPrice, uint _totalTickets) {\n        owner = msg.sender;\n        ticketPrice = _ticketPrice;\n        totalTickets = _totalTickets;\n    }\n\n    function buyTicket(uint amount) public payable {\n        require(msg.value == amount * ticketPrice, \"Incorrect payment\");\n        require(totalTickets >= amount, \"Not enough tickets available\");\n        ticketsOwned[msg.sender] += amount;\n        totalTickets -= amount;\n    }\n\n    function getTicketsOwned() public view returns (uint) {\n        return ticketsOwned[msg.sender];\n    }\n}\n",
  "sourcePath": "/Users/magistraapta/Documents/Kuliah/blockchain/tugas/blockchain-ticketing/contracts/Ticket.sol",
  "compiler": {
    "name": "solc",
    "version": "0.8.21+commit.d9974bed.Emscripten.clang"
  },
  "schemaVersion": "3.4.16",
  "updatedAt": "2024-11-13T11:37:06.699Z",
  "devdoc": {
    "kind": "dev",
    "methods": {},
    "version": 1
  },
  "userdoc": {
    "kind": "user",
    "methods": {},
    "version": 1
  }
}